{
  "contractName": "Escrow",
  "abi": [
    {
      "constant": true,
      "inputs": [],
      "name": "seller",
      "outputs": [
        {
          "name": "",
          "type": "address"
        }
      ],
      "payable": false,
      "stateMutability": "view",
      "type": "function"
    },
    {
      "constant": true,
      "inputs": [],
      "name": "buyer",
      "outputs": [
        {
          "name": "",
          "type": "address"
        }
      ],
      "payable": false,
      "stateMutability": "view",
      "type": "function"
    },
    {
      "constant": true,
      "inputs": [],
      "name": "amount",
      "outputs": [
        {
          "name": "",
          "type": "uint256"
        }
      ],
      "payable": false,
      "stateMutability": "view",
      "type": "function"
    },
    {
      "constant": true,
      "inputs": [],
      "name": "isCompleted",
      "outputs": [
        {
          "name": "",
          "type": "bool"
        }
      ],
      "payable": false,
      "stateMutability": "view",
      "type": "function"
    },
    {
      "constant": true,
      "inputs": [],
      "name": "arbiter",
      "outputs": [
        {
          "name": "",
          "type": "address"
        }
      ],
      "payable": false,
      "stateMutability": "view",
      "type": "function"
    },
    {
      "inputs": [
        {
          "name": "_seller",
          "type": "address"
        },
        {
          "name": "_arbiter",
          "type": "address"
        }
      ],
      "payable": false,
      "stateMutability": "nonpayable",
      "type": "constructor"
    },
    {
      "anonymous": false,
      "inputs": [
        {
          "indexed": true,
          "name": "buyer",
          "type": "address"
        },
        {
          "indexed": false,
          "name": "amount",
          "type": "uint256"
        }
      ],
      "name": "Deposited",
      "type": "event"
    },
    {
      "anonymous": false,
      "inputs": [
        {
          "indexed": true,
          "name": "seller",
          "type": "address"
        },
        {
          "indexed": false,
          "name": "amount",
          "type": "uint256"
        }
      ],
      "name": "FundsReleased",
      "type": "event"
    },
    {
      "anonymous": false,
      "inputs": [
        {
          "indexed": true,
          "name": "buyer",
          "type": "address"
        },
        {
          "indexed": false,
          "name": "amount",
          "type": "uint256"
        }
      ],
      "name": "FundsRefunded",
      "type": "event"
    },
    {
      "constant": false,
      "inputs": [],
      "name": "deposit",
      "outputs": [],
      "payable": true,
      "stateMutability": "payable",
      "type": "function"
    },
    {
      "constant": false,
      "inputs": [],
      "name": "releaseFundsToSeller",
      "outputs": [],
      "payable": false,
      "stateMutability": "nonpayable",
      "type": "function"
    },
    {
      "constant": false,
      "inputs": [],
      "name": "refundFundsToBuyer",
      "outputs": [],
      "payable": false,
      "stateMutability": "nonpayable",
      "type": "function"
    },
    {
      "constant": true,
      "inputs": [],
      "name": "contractBalance",
      "outputs": [
        {
          "name": "",
          "type": "uint256"
        }
      ],
      "payable": false,
      "stateMutability": "view",
      "type": "function"
    }
  ],
  "bytecode": "0x608060405234801561001057600080fd5b50604051604080610def8339810180604052604081101561003057600080fd5b810190808051906020019092919080519060200190929190505050600073ffffffffffffffffffffffffffffffffffffffff168273ffffffffffffffffffffffffffffffffffffffff16141515156100f0576040517f08c379a00000000000000000000000000000000000000000000000000000000081526004018080602001828103825260168152602001807f496e76616c69642073656c6c657220616464726573730000000000000000000081525060200191505060405180910390fd5b600073ffffffffffffffffffffffffffffffffffffffff168173ffffffffffffffffffffffffffffffffffffffff1614151515610195576040517f08c379a00000000000000000000000000000000000000000000000000000000081526004018080602001828103825260178152602001807f496e76616c69642061726269746572206164647265737300000000000000000081525060200191505060405180910390fd5b336000806101000a81548173ffffffffffffffffffffffffffffffffffffffff021916908373ffffffffffffffffffffffffffffffffffffffff16021790555081600160006101000a81548173ffffffffffffffffffffffffffffffffffffffff021916908373ffffffffffffffffffffffffffffffffffffffff16021790555080600260006101000a81548173ffffffffffffffffffffffffffffffffffffffff021916908373ffffffffffffffffffffffffffffffffffffffff1602179055506000600460006101000a81548160ff0219169083151502179055505050610b6c806102836000396000f3fe608060405260043610610093576000357c01000000000000000000000000000000000000000000000000000000009004806308551a53146100985780637150d8ae146100ef5780638b7afe2e14610146578063aa8c217c14610171578063d0e30db01461019c578063d7597ec4146101a6578063d8797db0146101bd578063fa391c64146101d4578063fe25e00a14610203575b600080fd5b3480156100a457600080fd5b506100ad61025a565b604051808273ffffffffffffffffffffffffffffffffffffffff1673ffffffffffffffffffffffffffffffffffffffff16815260200191505060405180910390f35b3480156100fb57600080fd5b50610104610280565b604051808273ffffffffffffffffffffffffffffffffffffffff1673ffffffffffffffffffffffffffffffffffffffff16815260200191505060405180910390f35b34801561015257600080fd5b5061015b6102a5565b6040518082815260200191505060405180910390f35b34801561017d57600080fd5b506101866102c4565b6040518082815260200191505060405180910390f35b6101a46102ca565b005b3480156101b257600080fd5b506101bb6104fa565b005b3480156101c957600080fd5b506101d26107d4565b005b3480156101e057600080fd5b506101e9610b07565b604051808215151515815260200191505060405180910390f35b34801561020f57600080fd5b50610218610b1a565b604051808273ffffffffffffffffffffffffffffffffffffffff1673ffffffffffffffffffffffffffffffffffffffff16815260200191505060405180910390f35b600160009054906101000a900473ffffffffffffffffffffffffffffffffffffffff1681565b6000809054906101000a900473ffffffffffffffffffffffffffffffffffffffff1681565b60003073ffffffffffffffffffffffffffffffffffffffff1631905090565b60035481565b6000809054906101000a900473ffffffffffffffffffffffffffffffffffffffff1673ffffffffffffffffffffffffffffffffffffffff163373ffffffffffffffffffffffffffffffffffffffff1614151561038e576040517f08c379a00000000000000000000000000000000000000000000000000000000081526004018080602001828103825260208152602001807f4f6e6c79207468652062757965722063616e206465706f7369742066756e647381525060200191505060405180910390fd5b6000600354141515610408576040517f08c379a00000000000000000000000000000000000000000000000000000000081526004018080602001828103825260178152602001807f46756e647320616c7265616479206465706f736974656400000000000000000081525060200191505060405180910390fd5b600034111515610480576040517f08c379a000000000000000000000000000000000000000000000000000000000815260040180806020018281038252601e8152602001807f4465706f736974206d7573742062652067726561746572207468616e2030000081525060200191505060405180910390fd5b346003819055506000809054906101000a900473ffffffffffffffffffffffffffffffffffffffff1673ffffffffffffffffffffffffffffffffffffffff167f2da466a7b24304f47e87fa2e1e5a81b9831ce54fec19055ce277ca2f39ba42c46003546040518082815260200191505060405180910390a2565b600260009054906101000a900473ffffffffffffffffffffffffffffffffffffffff1673ffffffffffffffffffffffffffffffffffffffff163373ffffffffffffffffffffffffffffffffffffffff161415156105bf576040517f08c379a000000000000000000000000000000000000000000000000000000000815260040180806020018281038252601b8152602001807f4f6e6c792074686520617262697465722063616e20726566756e64000000000081525060200191505060405180910390fd5b600460009054906101000a900460ff16151515610644576040517f08c379a000000000000000000000000000000000000000000000000000000000815260040180806020018281038252601d8152602001807f5472616e73616374696f6e20616c726561647920636f6d706c6574656400000081525060200191505060405180910390fd5b6001600460006101000a81548160ff02191690831515021790555060008060009054906101000a900473ffffffffffffffffffffffffffffffffffffffff1673ffffffffffffffffffffffffffffffffffffffff1660035460405180600001905060006040518083038185875af1925050503d80600081146106e2576040519150601f19603f3d011682016040523d82523d6000602084013e6106e7565b606091505b50509050801515610760576040517f08c379a00000000000000000000000000000000000000000000000000000000081526004018080602001828103825260168152602001807f526566756e6420746f206275796572206661696c65640000000000000000000081525060200191505060405180910390fd5b6000809054906101000a900473ffffffffffffffffffffffffffffffffffffffff1673ffffffffffffffffffffffffffffffffffffffff167fbada1a1bf129e41a8af5abe00997bd8a8cb1770cb0cf68314eb4b1d6c42713976003546040518082815260200191505060405180910390a250565b6000809054906101000a900473ffffffffffffffffffffffffffffffffffffffff1673ffffffffffffffffffffffffffffffffffffffff163373ffffffffffffffffffffffffffffffffffffffff16148061087c5750600260009054906101000a900473ffffffffffffffffffffffffffffffffffffffff1673ffffffffffffffffffffffffffffffffffffffff163373ffffffffffffffffffffffffffffffffffffffff16145b15156108f0576040517f08c379a000000000000000000000000000000000000000000000000000000000815260040180806020018281038252601f8152602001807f4e6f7420617574686f72697a656420746f2072656c656173652066756e64730081525060200191505060405180910390fd5b600460009054906101000a900460ff16151515610975576040517f08c379a000000000000000000000000000000000000000000000000000000000815260040180806020018281038252601d8152602001807f5472616e73616374696f6e20616c726561647920636f6d706c6574656400000081525060200191505060405180910390fd5b6001600460006101000a81548160ff0219169083151502179055506000600160009054906101000a900473ffffffffffffffffffffffffffffffffffffffff1673ffffffffffffffffffffffffffffffffffffffff1660035460405180600001905060006040518083038185875af1925050503d8060008114610a14576040519150601f19603f3d011682016040523d82523d6000602084013e610a19565b606091505b50509050801515610a92576040517f08c379a00000000000000000000000000000000000000000000000000000000081526004018080602001828103825260198152602001807f5472616e7366657220746f2073656c6c6572206661696c65640000000000000081525060200191505060405180910390fd5b600160009054906101000a900473ffffffffffffffffffffffffffffffffffffffff1673ffffffffffffffffffffffffffffffffffffffff167f221c08a06b07a64803b3787861a3f276212fcccb51c2e6234077a9b8cb13047a6003546040518082815260200191505060405180910390a250565b600460009054906101000a900460ff1681565b600260009054906101000a900473ffffffffffffffffffffffffffffffffffffffff168156fea165627a7a723058203ab26f0ac0c695db5a3b8f2ae216ebc963810ae6a2cec1a3b0606dbe984e88cd0029",
  "source": "// SPDX-License-Identifier: MIT\r\npragma solidity ^0.5.1;\r\n\r\ncontract Escrow {\r\n    address payable public buyer;   // Buyer address\r\n    address payable public seller;  // Seller address\r\n    address payable public arbiter; // Arbiter address (neutral party)\r\n    uint256 public amount;          // Escrowed amount\r\n    bool public isCompleted;        // Tracks whether the transaction is completed\r\n\r\n    // Events for transparency\r\n    event Deposited(address indexed buyer, uint256 amount);\r\n    event FundsReleased(address indexed seller, uint256 amount);\r\n    event FundsRefunded(address indexed buyer, uint256 amount);\r\n\r\n    // Constructor: Initialize the seller and arbiter\r\n    constructor(address payable _seller, address payable _arbiter) public {\r\n        require(_seller != address(0), \"Invalid seller address\");\r\n        require(_arbiter != address(0), \"Invalid arbiter address\");\r\n\r\n        buyer = msg.sender; // Set buyer as the contract deployer\r\n        seller = _seller;\r\n        arbiter = _arbiter;\r\n        isCompleted = false;\r\n    }\r\n\r\n    // Deposit funds into escrow\r\n    function deposit() public payable {\r\n        require(msg.sender == buyer, \"Only the buyer can deposit funds\");\r\n        require(amount == 0, \"Funds already deposited\");\r\n        require(msg.value > 0, \"Deposit must be greater than 0\");\r\n\r\n        amount = msg.value;\r\n\r\n        emit Deposited(buyer, amount); // Emit deposit event\r\n    }\r\n\r\n    // Release funds to the seller\r\n    function releaseFundsToSeller() public {\r\n        require(msg.sender == buyer || msg.sender == arbiter, \"Not authorized to release funds\");\r\n        require(!isCompleted, \"Transaction already completed\");\r\n\r\n        isCompleted = true; // Mark transaction as completed before transferring funds\r\n\r\n        (bool success, ) = seller.call.value(amount)(\"\");\r\n        require(success, \"Transfer to seller failed\");\r\n\r\n        emit FundsReleased(seller, amount); // Emit funds released event\r\n    }\r\n\r\n    // Refund funds to the buyer\r\n    function refundFundsToBuyer() public {\r\n        require(msg.sender == arbiter, \"Only the arbiter can refund\");\r\n        require(!isCompleted, \"Transaction already completed\");\r\n\r\n        isCompleted = true; // Mark transaction as completed before transferring funds\r\n\r\n        (bool success, ) = buyer.call.value(amount)(\"\");\r\n        require(success, \"Refund to buyer failed\");\r\n\r\n        emit FundsRefunded(buyer, amount); // Emit refund event\r\n    }\r\n\r\n    // Check contract balance\r\n    function contractBalance() public view returns (uint256) {\r\n        return address(this).balance;\r\n    }\r\n}\r\n",
  "sourcePath": "C:\\Users\\ASUS\\OneDrive\\Desktop\\DeliverEase\\DeliverEase\\payment-gateway\\contracts\\Escrow.sol",
  "compiler": {
    "name": "solc",
    "version": "0.5.1+commit.c8a2cb62.Emscripten.clang"
  },
  "schemaVersion": "3.4.16",
  "updatedAt": "2025-01-24T14:21:58.450Z",
  "devdoc": {
    "methods": {}
  },
  "userdoc": {
    "methods": {}
  }
}