{
  "contractName": "PaymentGateway",
  "abi": [
    {
      "constant": true,
      "inputs": [
        {
          "name": "",
          "type": "uint256"
        }
      ],
      "name": "payments",
      "outputs": [
        {
          "name": "payer",
          "type": "address"
        },
        {
          "name": "amount",
          "type": "uint256"
        },
        {
          "name": "timestamp",
          "type": "uint256"
        }
      ],
      "payable": false,
      "stateMutability": "view",
      "type": "function"
    },
    {
      "constant": true,
      "inputs": [],
      "name": "owner",
      "outputs": [
        {
          "name": "",
          "type": "address"
        }
      ],
      "payable": false,
      "stateMutability": "view",
      "type": "function"
    },
    {
      "constant": true,
      "inputs": [],
      "name": "transactionCount",
      "outputs": [
        {
          "name": "",
          "type": "uint256"
        }
      ],
      "payable": false,
      "stateMutability": "view",
      "type": "function"
    },
    {
      "inputs": [],
      "payable": false,
      "stateMutability": "nonpayable",
      "type": "constructor"
    },
    {
      "anonymous": false,
      "inputs": [
        {
          "indexed": true,
          "name": "from",
          "type": "address"
        },
        {
          "indexed": false,
          "name": "amount",
          "type": "uint256"
        },
        {
          "indexed": false,
          "name": "transactionId",
          "type": "uint256"
        }
      ],
      "name": "PaymentReceived",
      "type": "event"
    },
    {
      "anonymous": false,
      "inputs": [
        {
          "indexed": true,
          "name": "to",
          "type": "address"
        },
        {
          "indexed": false,
          "name": "amount",
          "type": "uint256"
        }
      ],
      "name": "PaymentWithdrawn",
      "type": "event"
    },
    {
      "constant": false,
      "inputs": [],
      "name": "pay",
      "outputs": [],
      "payable": true,
      "stateMutability": "payable",
      "type": "function"
    },
    {
      "constant": false,
      "inputs": [
        {
          "name": "amount",
          "type": "uint256"
        }
      ],
      "name": "withdraw",
      "outputs": [],
      "payable": false,
      "stateMutability": "nonpayable",
      "type": "function"
    },
    {
      "constant": true,
      "inputs": [],
      "name": "getContractBalance",
      "outputs": [
        {
          "name": "",
          "type": "uint256"
        }
      ],
      "payable": false,
      "stateMutability": "view",
      "type": "function"
    }
  ],
  "bytecode": "0x608060405234801561001057600080fd5b50336000806101000a81548173ffffffffffffffffffffffffffffffffffffffff021916908373ffffffffffffffffffffffffffffffffffffffff16021790555060006001819055506106b4806100686000396000f3fe608060405260043610610072576000357c0100000000000000000000000000000000000000000000000000000000900480631b9265b8146100775780632e1a7d4d146100815780636f9fb98a146100bc57806387d81789146100e75780638da5cb5b14610170578063b77bf600146101c7575b600080fd5b61007f6101f2565b005b34801561008d57600080fd5b506100ba600480360360208110156100a457600080fd5b810190808035906020019092919050505061037b565b005b3480156100c857600080fd5b506100d16105f4565b6040518082815260200191505060405180910390f35b3480156100f357600080fd5b506101206004803603602081101561010a57600080fd5b8101908080359060200190929190505050610613565b604051808473ffffffffffffffffffffffffffffffffffffffff1673ffffffffffffffffffffffffffffffffffffffff168152602001838152602001828152602001935050505060405180910390f35b34801561017c57600080fd5b5061018561065d565b604051808273ffffffffffffffffffffffffffffffffffffffff1673ffffffffffffffffffffffffffffffffffffffff16815260200191505060405180910390f35b3480156101d357600080fd5b506101dc610682565b6040518082815260200191505060405180910390f35b60003411151561026a576040517f08c379a00000000000000000000000000000000000000000000000000000000081526004018080602001828103825260198152602001807f596f75206d7573742073656e6420736f6d652045746865722e0000000000000081525060200191505060405180910390fd5b6001600081548092919060010191905055506060604051908101604052803373ffffffffffffffffffffffffffffffffffffffff1681526020013481526020014281525060026000600154815260200190815260200160002060008201518160000160006101000a81548173ffffffffffffffffffffffffffffffffffffffff021916908373ffffffffffffffffffffffffffffffffffffffff16021790555060208201518160010155604082015181600201559050503373ffffffffffffffffffffffffffffffffffffffff167f5677b5d4cf976ac32defbd95a6a5aaf0d1fee450a11fc26f3c11aae6e6c33d0634600154604051808381526020018281526020019250505060405180910390a2565b6000809054906101000a900473ffffffffffffffffffffffffffffffffffffffff1673ffffffffffffffffffffffffffffffffffffffff163373ffffffffffffffffffffffffffffffffffffffff16141515610465576040517f08c379a00000000000000000000000000000000000000000000000000000000081526004018080602001828103825260278152602001807f4f6e6c7920746865206f776e65722063616e20706572666f726d20746869732081526020017f616374696f6e2e0000000000000000000000000000000000000000000000000081525060400191505060405180910390fd5b803073ffffffffffffffffffffffffffffffffffffffff16311015151561051a576040517f08c379a00000000000000000000000000000000000000000000000000000000081526004018080602001828103825260258152602001807f496e73756666696369656e742062616c616e636520696e2074686520636f6e7481526020017f726163742e00000000000000000000000000000000000000000000000000000081525060400191505060405180910390fd5b6000809054906101000a900473ffffffffffffffffffffffffffffffffffffffff1673ffffffffffffffffffffffffffffffffffffffff166108fc829081150290604051600060405180830381858888f19350505050158015610581573d6000803e3d6000fd5b506000809054906101000a900473ffffffffffffffffffffffffffffffffffffffff1673ffffffffffffffffffffffffffffffffffffffff167f84511ecc081974f18e7f3e0dcc19db078b55bbd3852ddd0dd85b3aebb7bf94c2826040518082815260200191505060405180910390a250565b60003073ffffffffffffffffffffffffffffffffffffffff1631905090565b60026020528060005260406000206000915090508060000160009054906101000a900473ffffffffffffffffffffffffffffffffffffffff16908060010154908060020154905083565b6000809054906101000a900473ffffffffffffffffffffffffffffffffffffffff1681565b6001548156fea165627a7a72305820c4d5b6f268ff12eadf3473004852d526a204d431b35d0ad6260fb125dd6af07e0029",
  "source": "// SPDX-License-Identifier: MIT\r\npragma solidity >=0.4.22 <0.9.0;\r\n\r\ncontract PaymentGateway {\r\n    address payable public owner; // Change address to address payable\r\n    uint public transactionCount;\r\n\r\n    // Event to log transactions\r\n    event PaymentReceived(address indexed from, uint amount, uint transactionId);\r\n    event PaymentWithdrawn(address indexed to, uint amount);\r\n\r\n    // Mapping to track payments by transaction ID\r\n    mapping(uint => Payment) public payments;\r\n\r\n    // Struct to store payment details\r\n    struct Payment {\r\n        address payer;\r\n        uint amount;\r\n        uint timestamp;\r\n    }\r\n\r\n    // Modifier to restrict access to the owner\r\n    modifier onlyOwner() {\r\n        require(msg.sender == owner, \"Only the owner can perform this action.\");\r\n        _;\r\n    }\r\n\r\n    // Constructor to set the contract deployer as the owner\r\n    constructor() public {\r\n        owner = address(uint160(msg.sender)); // Explicitly cast msg.sender to address payable\r\n        transactionCount = 0;\r\n    }\r\n\r\n    // Function to receive Ether payments\r\n    function pay() public payable {\r\n        require(msg.value > 0, \"You must send some Ether.\");\r\n\r\n        // Increment transaction count\r\n        transactionCount++;\r\n\r\n        // Log the payment in the payments mapping\r\n        payments[transactionCount] = Payment(msg.sender, msg.value, block.timestamp);\r\n\r\n        // Emit an event for the payment\r\n        emit PaymentReceived(msg.sender, msg.value, transactionCount);\r\n    }\r\n\r\n    // Function to allow the owner to withdraw Ether from the contract\r\n    function withdraw(uint amount) public onlyOwner {\r\n        require(address(this).balance >= amount, \"Insufficient balance in the contract.\");\r\n\r\n        // Transfer the funds to the owner (cast to address payable)\r\n        owner.transfer(amount);\r\n\r\n        // Emit an event for the withdrawal\r\n        emit PaymentWithdrawn(owner, amount);\r\n    }\r\n\r\n    // Function to get the contract's balance\r\n    function getContractBalance() public view returns (uint) {\r\n        return address(this).balance;\r\n    }\r\n}\r\n",
  "sourcePath": "C:\\Users\\ASUS\\OneDrive\\Desktop\\DeliverEase\\DeliverEase\\payment-gateway\\contracts\\PaymentGateway.sol",
  "compiler": {
    "name": "solc",
    "version": "0.5.1+commit.c8a2cb62.Emscripten.clang"
  },
  "schemaVersion": "3.4.16",
  "updatedAt": "2024-12-02T13:56:42.397Z",
  "networkType": "ethereum",
  "devdoc": {
    "methods": {}
  },
  "userdoc": {
    "methods": {}
  }
}