{
  "contractName": "Payment",
  "abi": [
    {
      "inputs": [],
      "stateMutability": "nonpayable",
      "type": "constructor"
    },
    {
      "anonymous": false,
      "inputs": [
        {
          "indexed": true,
          "internalType": "address",
          "name": "from",
          "type": "address"
        },
        {
          "indexed": false,
          "internalType": "uint256",
          "name": "amount",
          "type": "uint256"
        }
      ],
      "name": "PaymentReceived",
      "type": "event"
    },
    {
      "anonymous": false,
      "inputs": [
        {
          "indexed": true,
          "internalType": "address",
          "name": "to",
          "type": "address"
        },
        {
          "indexed": false,
          "internalType": "uint256",
          "name": "amount",
          "type": "uint256"
        }
      ],
      "name": "PaymentWithdrawn",
      "type": "event"
    },
    {
      "inputs": [],
      "name": "owner",
      "outputs": [
        {
          "internalType": "address",
          "name": "",
          "type": "address"
        }
      ],
      "stateMutability": "view",
      "type": "function"
    },
    {
      "inputs": [],
      "name": "pay",
      "outputs": [],
      "stateMutability": "payable",
      "type": "function"
    },
    {
      "inputs": [
        {
          "internalType": "uint256",
          "name": "amount",
          "type": "uint256"
        }
      ],
      "name": "withdraw",
      "outputs": [],
      "stateMutability": "nonpayable",
      "type": "function"
    },
    {
      "inputs": [],
      "name": "getBalance",
      "outputs": [
        {
          "internalType": "uint256",
          "name": "",
          "type": "uint256"
        }
      ],
      "stateMutability": "view",
      "type": "function"
    }
  ],
  "bytecode": "0x608060405234801561000f575f80fd5b50335f806101000a81548173ffffffffffffffffffffffffffffffffffffffff021916908373ffffffffffffffffffffffffffffffffffffffff1602179055506105878061005c5f395ff3fe60806040526004361061003e575f3560e01c806312065fe0146100425780631b9265b81461006c5780632e1a7d4d146100765780638da5cb5b1461009e575b5f80fd5b34801561004d575f80fd5b506100566100c8565b604051610063919061033f565b60405180910390f35b6100746100cf565b005b348015610081575f80fd5b5061009c60048036038101906100979190610386565b610161565b005b3480156100a9575f80fd5b506100b2610304565b6040516100bf91906103f0565b60405180910390f35b5f47905090565b5f3411610111576040517f08c379a000000000000000000000000000000000000000000000000000000000815260040161010890610463565b60405180910390fd5b3373ffffffffffffffffffffffffffffffffffffffff167f6ef95f06320e7a25a04a175ca677b7052bdd97131872c2192525a629f51be77034604051610157919061033f565b60405180910390a2565b5f8054906101000a900473ffffffffffffffffffffffffffffffffffffffff1673ffffffffffffffffffffffffffffffffffffffff163373ffffffffffffffffffffffffffffffffffffffff16146101ee576040517f08c379a00000000000000000000000000000000000000000000000000000000081526004016101e5906104cb565b60405180910390fd5b80471015610231576040517f08c379a000000000000000000000000000000000000000000000000000000000815260040161022890610533565b60405180910390fd5b5f8054906101000a900473ffffffffffffffffffffffffffffffffffffffff1673ffffffffffffffffffffffffffffffffffffffff166108fc8290811502906040515f60405180830381858888f19350505050158015610293573d5f803e3d5ffd5b505f8054906101000a900473ffffffffffffffffffffffffffffffffffffffff1673ffffffffffffffffffffffffffffffffffffffff167f84511ecc081974f18e7f3e0dcc19db078b55bbd3852ddd0dd85b3aebb7bf94c2826040516102f9919061033f565b60405180910390a250565b5f8054906101000a900473ffffffffffffffffffffffffffffffffffffffff1681565b5f819050919050565b61033981610327565b82525050565b5f6020820190506103525f830184610330565b92915050565b5f80fd5b61036581610327565b811461036f575f80fd5b50565b5f813590506103808161035c565b92915050565b5f6020828403121561039b5761039a610358565b5b5f6103a884828501610372565b91505092915050565b5f73ffffffffffffffffffffffffffffffffffffffff82169050919050565b5f6103da826103b1565b9050919050565b6103ea816103d0565b82525050565b5f6020820190506104035f8301846103e1565b92915050565b5f82825260208201905092915050565b7f5061796d656e74206d7573742062652067726561746572207468616e203000005f82015250565b5f61044d601e83610409565b915061045882610419565b602082019050919050565b5f6020820190508181035f83015261047a81610441565b9050919050565b7f4f6e6c7920746865206f776e65722063616e20776974686472617700000000005f82015250565b5f6104b5601b83610409565b91506104c082610481565b602082019050919050565b5f6020820190508181035f8301526104e2816104a9565b9050919050565b7f496e73756666696369656e742062616c616e63650000000000000000000000005f82015250565b5f61051d601483610409565b9150610528826104e9565b602082019050919050565b5f6020820190508181035f83015261054a81610511565b905091905056fea264697066735822122026fc5dd30705187a717e2b7439c1b8feb7d4eec93234a41d625c0bf729113a4f64736f6c63430008150033",
  "immutableReferences": {},
  "source": "// SPDX-License-Identifier: MIT\r\npragma solidity ^0.8.0;\r\n\r\ncontract Payment {\r\n    address public owner;\r\n\r\n    event PaymentReceived(address indexed from, uint256 amount);\r\n    event PaymentWithdrawn(address indexed to, uint256 amount);\r\n\r\n    constructor() {\r\n        owner = msg.sender;\r\n    }\r\n\r\n    // Function to receive payment\r\n    function pay() public payable {\r\n        require(msg.value > 0, \"Payment must be greater than 0\");\r\n        emit PaymentReceived(msg.sender, msg.value);\r\n    }\r\n\r\n    // Function for the owner to withdraw payments\r\n    function withdraw(uint256 amount) public {\r\n        require(msg.sender == owner, \"Only the owner can withdraw\");\r\n        require(address(this).balance >= amount, \"Insufficient balance\");\r\n        payable(owner).transfer(amount);\r\n        emit PaymentWithdrawn(owner, amount);\r\n    }\r\n\r\n    // Get contract balance\r\n    function getBalance() public view returns (uint256) {\r\n        return address(this).balance;\r\n    }\r\n}\r\n",
  "sourcePath": "E:\\DeliverEase\\DeliverEase\\deliverEase-blockchain\\contracts\\Payment.sol",
  "compiler": {
    "name": "solc",
    "version": "0.8.21+commit.d9974bed.Emscripten.clang"
  },
  "schemaVersion": "3.4.16",
  "updatedAt": "2024-11-27T14:38:37.300Z",
  "devdoc": {
    "kind": "dev",
    "methods": {},
    "version": 1
  },
  "userdoc": {
    "kind": "user",
    "methods": {},
    "version": 1
  }
}