{
  "contractName": "Escrow",
  "abi": [
    {
      "inputs": [
        {
          "internalType": "address",
          "name": "_arbiter",
          "type": "address"
        },
        {
          "internalType": "address",
          "name": "_beneficiary",
          "type": "address"
        },
        {
          "internalType": "uint256",
          "name": "_amount",
          "type": "uint256"
        }
      ],
      "stateMutability": "nonpayable",
      "type": "constructor"
    },
    {
      "inputs": [],
      "name": "amount",
      "outputs": [
        {
          "internalType": "uint256",
          "name": "",
          "type": "uint256"
        }
      ],
      "stateMutability": "view",
      "type": "function"
    },
    {
      "inputs": [],
      "name": "arbiter",
      "outputs": [
        {
          "internalType": "address",
          "name": "",
          "type": "address"
        }
      ],
      "stateMutability": "view",
      "type": "function"
    },
    {
      "inputs": [],
      "name": "beneficiary",
      "outputs": [
        {
          "internalType": "address",
          "name": "",
          "type": "address"
        }
      ],
      "stateMutability": "view",
      "type": "function"
    }
  ],
  "bytecode": "0x608060405234801561000f575f80fd5b5060405161035738038061035783398181016040528101906100319190610150565b825f806101000a81548173ffffffffffffffffffffffffffffffffffffffff021916908373ffffffffffffffffffffffffffffffffffffffff1602179055508160015f6101000a81548173ffffffffffffffffffffffffffffffffffffffff021916908373ffffffffffffffffffffffffffffffffffffffff160217905550806002819055505050506101a0565b5f80fd5b5f73ffffffffffffffffffffffffffffffffffffffff82169050919050565b5f6100ec826100c3565b9050919050565b6100fc816100e2565b8114610106575f80fd5b50565b5f81519050610117816100f3565b92915050565b5f819050919050565b61012f8161011d565b8114610139575f80fd5b50565b5f8151905061014a81610126565b92915050565b5f805f60608486031215610167576101666100bf565b5b5f61017486828701610109565b935050602061018586828701610109565b92505060406101968682870161013c565b9150509250925092565b6101aa806101ad5f395ff3fe608060405234801561000f575f80fd5b506004361061003f575f3560e01c806338af3eed14610043578063aa8c217c14610061578063fe25e00a1461007f575b5f80fd5b61004b61009d565b604051610058919061012a565b60405180910390f35b6100696100c2565b604051610076919061015b565b60405180910390f35b6100876100c8565b604051610094919061012a565b60405180910390f35b60015f9054906101000a900473ffffffffffffffffffffffffffffffffffffffff1681565b60025481565b5f8054906101000a900473ffffffffffffffffffffffffffffffffffffffff1681565b5f73ffffffffffffffffffffffffffffffffffffffff82169050919050565b5f610114826100eb565b9050919050565b6101248161010a565b82525050565b5f60208201905061013d5f83018461011b565b92915050565b5f819050919050565b61015581610143565b82525050565b5f60208201905061016e5f83018461014c565b9291505056fea2646970667358221220c5a78b71408eb214e5f16d99281611cbea33c7578d90a31a2b453df674f0187b64736f6c63430008150033",
  "immutableReferences": {},
  "source": "contract Escrow {\r\n    address public arbiter;\r\n    address public beneficiary;\r\n    uint public amount;\r\n\r\n    constructor(address _arbiter, address _beneficiary, uint _amount) {\r\n        arbiter = _arbiter;\r\n        beneficiary = _beneficiary;\r\n        amount = _amount;\r\n    }\r\n}\r\n",
  "sourcePath": "C:\\Users\\ASUS\\OneDrive\\Desktop\\DeliverEase\\DeliverEase\\contracts\\Escrow.sol",
  "compiler": {
    "name": "solc",
    "version": "0.8.21+commit.d9974bed.Emscripten.clang"
  },
  "schemaVersion": "3.4.16",
  "updatedAt": "2024-11-12T05:33:39.738Z",
  "devdoc": {
    "kind": "dev",
    "methods": {},
    "version": 1
  },
  "userdoc": {
    "kind": "user",
    "methods": {},
    "version": 1
  }
}